{
  "address": "0xBE918cFACCA771508A2cDeF6E8751729acf943E3",
  "abi": [
    {
      "inputs": [
        {
          "internalType": "address",
          "name": "_owner",
          "type": "address"
        }
      ],
      "stateMutability": "nonpayable",
      "type": "constructor"
    },
    {
      "anonymous": false,
      "inputs": [
        {
          "indexed": true,
          "internalType": "address",
          "name": "sender",
          "type": "address"
        },
        {
          "indexed": true,
          "internalType": "address",
          "name": "receiver",
          "type": "address"
        },
        {
          "indexed": false,
          "internalType": "string",
          "name": "newMessage",
          "type": "string"
        },
        {
          "indexed": false,
          "internalType": "uint256",
          "name": "value",
          "type": "uint256"
        },
        {
          "indexed": false,
          "internalType": "uint256",
          "name": "fee",
          "type": "uint256"
        }
      ],
      "name": "PaymentChange",
      "type": "event"
    },
    {
      "anonymous": false,
      "inputs": [
        {
          "indexed": false,
          "internalType": "address",
          "name": "wallet",
          "type": "address"
        },
        {
          "indexed": false,
          "internalType": "uint256",
          "name": "value",
          "type": "uint256"
        }
      ],
      "name": "SaveSwitchChange",
      "type": "event"
    },
    {
      "anonymous": false,
      "inputs": [
        {
          "indexed": false,
          "internalType": "address",
          "name": "wallet",
          "type": "address"
        },
        {
          "indexed": false,
          "internalType": "uint256",
          "name": "value",
          "type": "uint256"
        }
      ],
      "name": "WithdrawChange",
      "type": "event"
    },
    {
      "inputs": [
        {
          "internalType": "address",
          "name": "",
          "type": "address"
        }
      ],
      "name": "amountsReceived",
      "outputs": [
        {
          "internalType": "uint256",
          "name": "",
          "type": "uint256"
        }
      ],
      "stateMutability": "view",
      "type": "function"
    },
    {
      "inputs": [],
      "name": "feePercentage",
      "outputs": [
        {
          "internalType": "uint256",
          "name": "",
          "type": "uint256"
        }
      ],
      "stateMutability": "view",
      "type": "function"
    },
    {
      "inputs": [],
      "name": "message",
      "outputs": [
        {
          "internalType": "string",
          "name": "",
          "type": "string"
        }
      ],
      "stateMutability": "view",
      "type": "function"
    },
    {
      "inputs": [],
      "name": "owner",
      "outputs": [
        {
          "internalType": "address",
          "name": "",
          "type": "address"
        }
      ],
      "stateMutability": "view",
      "type": "function"
    },
    {
      "inputs": [
        {
          "internalType": "uint256",
          "name": "_amount",
          "type": "uint256"
        }
      ],
      "name": "saveSwitch",
      "outputs": [],
      "stateMutability": "nonpayable",
      "type": "function"
    },
    {
      "inputs": [
        {
          "internalType": "uint256",
          "name": "_percentage",
          "type": "uint256"
        }
      ],
      "name": "setFeePercentage",
      "outputs": [],
      "stateMutability": "nonpayable",
      "type": "function"
    },
    {
      "inputs": [
        {
          "internalType": "address",
          "name": "_receiver",
          "type": "address"
        },
        {
          "internalType": "string",
          "name": "_message",
          "type": "string"
        }
      ],
      "name": "setPayment",
      "outputs": [],
      "stateMutability": "payable",
      "type": "function"
    },
    {
      "inputs": [
        {
          "internalType": "uint256",
          "name": "_amount",
          "type": "uint256"
        }
      ],
      "name": "withdraw",
      "outputs": [],
      "stateMutability": "nonpayable",
      "type": "function"
    },
    {
      "stateMutability": "payable",
      "type": "receive"
    }
  ],
  "transactionHash": "0x553c4ff9b23893a2e94ee519e8e40e83fdbc17533e947c27a6b17f6a914c776b",
  "args": [
    "0x3990677113d7fd2339F85dD4b312E392b595C19f"
  ],
  "numDeployments": 2,
  "solcInputHash": "20a173d7b7fa7484cde0fe928bf55766",
  "bytecode": "0x60e0604052601160a0908152704461726520746f2067657420706169643f60781b60c0526000906200003290826200011f565b503480156200004057600080fd5b5060405162000dfb38038062000dfb8339810160408190526200006391620001eb565b6001600160a01b031660805260036002556200021d565b634e487b7160e01b600052604160045260246000fd5b600181811c90821680620000a557607f821691505b602082108103620000c657634e487b7160e01b600052602260045260246000fd5b50919050565b601f8211156200011a57600081815260208120601f850160051c81016020861015620000f55750805b601f850160051c820191505b81811015620001165782815560010162000101565b5050505b505050565b81516001600160401b038111156200013b576200013b6200007a565b62000153816200014c845462000090565b84620000cc565b602080601f8311600181146200018b5760008415620001725750858301515b600019600386901b1c1916600185901b17855562000116565b600085815260208120601f198616915b82811015620001bc578886015182559484019460019091019084016200019b565b5085821015620001db5787850151600019600388901b60f8161c191681555b5050505050600190811b01905550565b600060208284031215620001fe57600080fd5b81516001600160a01b03811681146200021657600080fd5b9392505050565b608051610ba7620002546000396000818160bf015281816103920152818161056d0152818161067f015261078c0152610ba76000f3fe60806040526004361061007f5760003560e01c8063bbff8b8d1161004e578063bbff8b8d14610142578063c34f27e414610155578063e21f37ce14610175578063eb1db04a1461019757600080fd5b80632e1a7d4d1461008b5780638da5cb5b146100ad578063a001ecdd146100fe578063ae06c1b71461012257600080fd5b3661008657005b600080fd5b34801561009757600080fd5b506100ab6100a636600461090f565b6101c4565b005b3480156100b957600080fd5b506100e17f000000000000000000000000000000000000000000000000000000000000000081565b6040516001600160a01b0390911681526020015b60405180910390f35b34801561010a57600080fd5b5061011460025481565b6040519081526020016100f5565b34801561012e57600080fd5b506100ab61013d36600461090f565b610387565b6100ab61015036600461095a565b61044f565b34801561016157600080fd5b506100ab61017036600461090f565b610674565b34801561018157600080fd5b5061018a610881565b6040516100f59190610a62565b3480156101a357600080fd5b506101146101b2366004610a7c565b60016020526000908152604090205481565b6000811161022a5760405162461bcd60e51b815260206004820152602860248201527f5769746864726177616c20616d6f756e74206d75737420626520677265617465604482015267072207468616e20360c41b60648201526084015b60405180910390fd5b336000908152600160205260409020548111156102955760405162461bcd60e51b815260206004820152602360248201527f496e73756666696369656e742062616c616e636520666f7220776974686472616044820152621dd85b60ea1b6064820152608401610221565b33600090815260016020526040812080548392906102b4908490610aad565b9091555050604051600090339083908381818185875af1925050503d80600081146102fb576040519150601f19603f3d011682016040523d82523d6000602084013e610300565b606091505b50509050806103495760405162461bcd60e51b815260206004820152601560248201527411985a5b1959081d1bc81cd95b9908185b5bdd5b9d605a1b6044820152606401610221565b60408051338152602081018490527fee9aa86234b5bd20863f8b5079d5250d4dd7ff556d3503d6775f63449196cf9391015b60405180910390a15050565b336001600160a01b037f000000000000000000000000000000000000000000000000000000000000000016146103ef5760405162461bcd60e51b815260206004820152600d60248201526c2737ba103a34329027bbb732b960991b6044820152606401610221565b606481111561044a5760405162461bcd60e51b815260206004820152602160248201527f4665652070657263656e746167652063616e6e6f7420657863656564203130306044820152602560f81b6064820152608401610221565b600255565b600034116104ab5760405162461bcd60e51b815260206004820152602360248201527f5061796d656e742076616c7565206d757374206265206869676865722074686160448201526206e20360ec1b6064820152608401610221565b6001600160a01b0382166105015760405162461bcd60e51b815260206004820152601f60248201527f526563656976657220616464726573732063616e6e6f74206265207a65726f006044820152606401610221565b60006064600254346105139190610ac6565b61051d9190610add565b9050600061052b8234610aad565b6001600160a01b038516600090815260016020526040812080549293508392909190610558908490610aff565b90915550506040516000906001600160a01b037f0000000000000000000000000000000000000000000000000000000000000000169084908381818185875af1925050503d80600081146105c8576040519150601f19603f3d011682016040523d82523d6000602084013e6105cd565b606091505b505090508061061e5760405162461bcd60e51b815260206004820152601b60248201527f4661696c656420746f2073656e642066656520746f206f776e657200000000006044820152606401610221565b846001600160a01b0316336001600160a01b03167f2d1ee7a32d3dd08ceee6bdaa62ccbef9d45a3aed57436c5353a830e51078d15086858760405161066593929190610b12565b60405180910390a35050505050565b336001600160a01b037f000000000000000000000000000000000000000000000000000000000000000016146106dc5760405162461bcd60e51b815260206004820152600d60248201526c2737ba103a34329027bbb732b960991b6044820152606401610221565b600081116107385760405162461bcd60e51b8152602060048201526024808201527f52657363756520616d6f756e74206d75737420626520677265617465722074686044820152630616e20360e41b6064820152608401610221565b804710156107885760405162461bcd60e51b815260206004820152601f60248201527f496e73756666696369656e742062616c616e636520666f7220726573637565006044820152606401610221565b60007f00000000000000000000000000000000000000000000000000000000000000006001600160a01b03168260405160006040518083038185875af1925050503d80600081146107f5576040519150601f19603f3d011682016040523d82523d6000602084013e6107fa565b606091505b505090508061084b5760405162461bcd60e51b815260206004820152601d60248201527f4661696c656420746f2073656e6420457468657220746f206f776e65720000006044820152606401610221565b60408051338152602081018490527f4a34ca9c3d69dd1ec1510464659de5669ffb6c279742b69e4df9407decef8361910161037b565b6000805461088e90610b37565b80601f01602080910402602001604051908101604052809291908181526020018280546108ba90610b37565b80156109075780601f106108dc57610100808354040283529160200191610907565b820191906000526020600020905b8154815290600101906020018083116108ea57829003601f168201915b505050505081565b60006020828403121561092157600080fd5b5035919050565b80356001600160a01b038116811461093f57600080fd5b919050565b634e487b7160e01b600052604160045260246000fd5b6000806040838503121561096d57600080fd5b61097683610928565b9150602083013567ffffffffffffffff8082111561099357600080fd5b818501915085601f8301126109a757600080fd5b8135818111156109b9576109b9610944565b604051601f8201601f19908116603f011681019083821181831017156109e1576109e1610944565b816040528281528860208487010111156109fa57600080fd5b8260208601602083013760006020848301015280955050505050509250929050565b6000815180845260005b81811015610a4257602081850181015186830182015201610a26565b506000602082860101526020601f19601f83011685010191505092915050565b602081526000610a756020830184610a1c565b9392505050565b600060208284031215610a8e57600080fd5b610a7582610928565b634e487b7160e01b600052601160045260246000fd5b81810381811115610ac057610ac0610a97565b92915050565b8082028115828204841417610ac057610ac0610a97565b600082610afa57634e487b7160e01b600052601260045260246000fd5b500490565b80820180821115610ac057610ac0610a97565b606081526000610b256060830186610a1c565b60208301949094525060400152919050565b600181811c90821680610b4b57607f821691505b602082108103610b6b57634e487b7160e01b600052602260045260246000fd5b5091905056fea26469706673582212207cfcf1b0bbaec9700417f6cb801887be20a79991f3dee7a4da01eef3ba764e6564736f6c63430008110033",
  "devdoc": {
    "author": "WildPay",
    "kind": "dev",
    "methods": {
      "saveSwitch(uint256)": {
        "params": {
          "_amount": "The amount of Ether to rescue"
        }
      },
      "setFeePercentage(uint256)": {
        "params": {
          "_percentage": "The new fee percentage"
        }
      },
      "setPayment(address,string)": {
        "params": {
          "_message": "(string memory) - optional message associated with the payment",
          "_receiver": "(address) - address of the receiver"
        }
      },
      "withdraw(uint256)": {
        "params": {
          "_amount": "The amount of Ether to withdraw"
        }
      }
    },
    "version": 1
  },
  "userdoc": {
    "kind": "user",
    "methods": {
      "saveSwitch(uint256)": {
        "notice": "Function that allows the owner to rescue Ether from the contract The function can only be called by the owner "
      },
      "setFeePercentage(uint256)": {
        "notice": "Function to set the fee percentage. Can only be called by the owner."
      },
      "setPayment(address,string)": {
        "notice": "Function that allows anyone to send a payment to a receiver, updating the state variables"
      },
      "withdraw(uint256)": {
        "notice": "Function that allows the [msg.sender] to withdraw a custom amount of Ether they've received in the contract The function can only be called by the [msg.sender] "
      }
    },
    "notice": "A smart contract that allows sending of payments from a wallet to a wallet",
    "version": 1
  },
  "storageLayout": {
    "storage": [
      {
        "astId": 7,
        "contract": "contracts/YourContract.sol:YourContract",
        "label": "message",
        "offset": 0,
        "slot": "0",
        "type": "t_string_storage"
      },
      {
        "astId": 11,
        "contract": "contracts/YourContract.sol:YourContract",
        "label": "amountsReceived",
        "offset": 0,
        "slot": "1",
        "type": "t_mapping(t_address,t_uint256)"
      },
      {
        "astId": 13,
        "contract": "contracts/YourContract.sol:YourContract",
        "label": "feePercentage",
        "offset": 0,
        "slot": "2",
        "type": "t_uint256"
      }
    ],
    "types": {
      "t_address": {
        "encoding": "inplace",
        "label": "address",
        "numberOfBytes": "20"
      },
      "t_mapping(t_address,t_uint256)": {
        "encoding": "mapping",
        "key": "t_address",
        "label": "mapping(address => uint256)",
        "numberOfBytes": "32",
        "value": "t_uint256"
      },
      "t_string_storage": {
        "encoding": "bytes",
        "label": "string",
        "numberOfBytes": "32"
      },
      "t_uint256": {
        "encoding": "inplace",
        "label": "uint256",
        "numberOfBytes": "32"
      }
    }
  }
}